:1000000045C0000060C000005EC000005CC0000091
:100010005AC0000058C0000056C0000054C0000084
:1000200052C0000050C000004EC000004CC0000094
:100030004AC0000048C0000046C0000044C00000A4
:1000400042C0000040C0000087C100003CC000006A
:10005000A8C0000038C00000FFC0000034C000008D
:1000600032C0000030C000002EC000002CC00000D4
:1000700044C1000028C0000026C0000024C00000C9
:1000800022C0000020C000001EC0000011241FBEBE
:10009000CFEFD0E4DEBFCDBF11E0A0E0B1E0E4E4FB
:1000A000F4E000E00BBF02C007900D92A830B1074A
:1000B000D9F721E0A8E0B1E001C01D92A73CB2074A
:1000C000E1F77ED1BDC19CCFFA01118210829383EA
:1000D000828375836483BC016F5F7F4F8FEF9FE7DF
:1000E00088D1778366830895FA0170E0282F30E085
:1000F000261B370B868197818217930784F0919591
:1001000081959109281739076CF082819381289F86
:10011000D001299FB00D389FB00D112405C0AFEF5D
:10012000BFE702C0A1E0B0E820813181AB01421BF2
:10013000530B24813581429FC001439F900D529FF4
:10014000900D1124718360838A0F9B1F992314F4EF
:1001500081589F4F880F892F881F990B089590937E
:100160008900809388000895209104013091050151
:10017000281739072CF030938B0020938A000895BC
:100180002091060130910701821793072CF03093DC
:100190008B0020938A00089590938B0080938A00AF
:1001A00008951F920F920FB60F9211240BB60F9263
:1001B0002F933F934F938F939F93AF93BF93EF935F
:1001C000FF9380919201909193018034910531F4D5
:1001D00081E080939B018091C60016C08034910518
:1001E000E8F4E0E9F1E0208131814091C600D901D5
:1001F000A25BBE4F4C932F5F3F4F3183208301960C
:100200009093930180939201809192019091930138
:100210008034910519F481E08093990180919001D7
:10022000909191018034910521F4109291011092E6
:10023000900181E080939801FF91EF91BF91AF9180
:100240009F918F914F913F912F910F900BBE0F90E7
:100250000FBE0F901F9018951F920F920FB60F921E
:1002600011240BB60F928F939F93EF93FF9380917E
:100270004C0190914D018034910519F41092970131
:1002800002C0892BB9F0E0914801F0914901E85F83
:10029000FE4F80818093C600E8E4F1E08081918187
:1002A000019691838083ECE4F1E080819181019754
:1002B0009183808380914801909149018034910518
:1002C00021F4109249011092480180914C019091C3
:1002D0004D01892B39F410929A01E1ECF0E0808114
:1002E0008F7B8083FF91EF919F918F910F900BBE39
:1002F0000F900FBE0F901F9018951F920F920FB680
:100300000F9211240BB60F928F939F93EF93FF934D
:100310008091CE008F3F29F41092BE011092BD0152
:1003200010C0E091BD01F091BE01E356FE4F808305
:100330008091BD019091BE0101969093BE01809382
:10034000BD01FF91EF919F918F910F900BBE0F9088
:100350000FBE0F901F9018951F920F920FB60F921D
:1003600011242F938F939F938091940190919501E5
:100370008B3926E9920730F401969093950180938A
:10038000940109C08091960181608093960110923A
:100390009501109294019F918F912F910F900FBE14
:1003A0000F901F9018954FEB51E060E070E080E8EF
:1003B00090E08ADE81E085BD80936E0016BC0895D2
:1003C000F2DF8091000190910101C9DE4FEB51E015
:1003D0006CE88DE789DE2091020130910301A901CB
:1003E000480F511D87FD5A95CA01BEDE80E090E09E
:1003F000089597FB072E16F4009406D077FD08D0D9
:100400000BD007FC05D03EF4909581959F4F089541
:10041000709561957F4F0895AA1BBB1B51E107C0E2
:10042000AA1FBB1FA617B70710F0A61BB70B881F84
:10043000991F5A95A9F780959095BC01CD01089513
:04044000F894FFCF5E
:08044400180B360B9808F40BAD
:00000001FF
